:020000040800F2
:100000006007002091010008C31A0008F1160008DB
:10001000C11A00089D0400083D1D000800000000F2
:10002000000000000000000000000000C71A0008E7
:100030009F04000800000000C51A0008C91A000843
:10004000AB010008AB010008AB010008AB010008E0
:10005000AB010008AB010008AB010008AB010008D0
:10006000AB010008AB010008AB010008AB010008C0
:10007000AB010008AB010008AB010008AB010008B0
:10008000AB010008AB010008AB010008AB010008A0
:10009000AB010008AB010008AB010008AB01000890
:1000A000AB010008AB010008AB010008AB01000880
:1000B000AB010008AB010008AB010008AB01000870
:1000C000AB010008AB010008AB010008AB01000860
:1000D000AB010008311D0008AB010008AB010008AE
:1000E000AB010008AB010008AB01000800F002F80A
:1000F00000F03FF80AA090E8000C82448344AAF183
:100100000107DA4501D100F034F8AFF2090EBAE880
:100110000F0013F0010F18BFFB1A43F0010318473B
:10012000F01E0000101F0000103A24BF78C878C1EC
:10013000FAD8520724BF30C830C144BF04680C60ED
:10014000704700000023002400250026103A28BF35
:1001500078C1FBD8520728BF30C148BF0B60704739
:10016000642900F07D80002070471FB51FBD10B5C9
:1001700010BD00F052F91146FFF7F7FF01F0F0FD56
:1001800000F070F903B4FFF7F2FF03BC00F078F958
:100190000948804709480047FEE7FEE7FEE7FEE71B
:1001A000FEE7FEE7FEE7FEE7FEE7FEE70448054957
:1001B000054A064B704700001D1B0008ED000008B3
:1001C0006001002060070020600300206003002021
:1001D0000FB41CB5074B06AA7B44694600900598EE
:1001E00000F003F90020694600F012F91CBC5DF82C
:1001F00014FB0000350200002DE9F0410E460446D4
:10020000002020622046E168884730B3252805D0C9
:10021000D4E901219047206A401CF2E7E1682046BA
:1002200000278847050018D0A5F14100192802D8F9
:1002300020354FF400673246294620462760FFF7F5
:100240008FFF40B1012804D0F61D26F007060836BE
:10025000D8E7361DD6E72846DAE7206ABDE8F08100
:100260002DE9F0410646002410687529314616A58F
:1002700010D0AFF30080002802DA404213A507E057
:1002800031688A0701D512A502E0490704D511A5F6
:10029000012401E0AFF3008000210A2206F12407C7
:1002A00009E0B0FBF2FCB0FBF2F302FB1C003030C3
:1002B00078541846491C0028F3D123462A46304674
:1002C000BDE8F04100F032B8000000002D00000051
:1002D0002B000000200000004FF0000200B5134684
:1002E00094469646203922BFA0E80C50A0E80C5056
:1002F000B1F12001BFF4F7AF090728BFA0E80C5007
:1003000048BF0CC05DF804EB890028BF40F8042BFF
:1003100008BF704748BF20F8022B11F0804F18BF6C
:1003200000F8012B70477047704770472DE9F04780
:100330000D4699469246044600F124080168880655
:1003400004D5E06921F01001216000E00120A842FD
:1003500001DD471B00E00027A1697A1902EB0900C3
:10036000081AA0612078C00602D42046AFF30080AE
:10037000002608E0D4E901211AF806009047206A17
:10038000401C761C20624E45F4DB2078C0060AD55E
:100390002046AFF3008006E0D4E9012130209047E9
:1003A000206A401C2062381EA7F10107F4DC07E038
:1003B000D4E9012118F805009047206A401C20620A
:1003C000281EA5F10105F3DC2046AFF3008020785C
:1003D000000602D50220BDE8F0870120FBE70000FF
:1003E00001694A1C02610878704700B58FB0CDE9F9
:1003F00001310021059105497944CDE903101146E9
:100400006846FFF7F9FE0FB000BD0000E5FFFFFFF3
:100410000A6802F8010B0A607047754600F02CF874
:10042000AE4605006946534620F00700854618B0E1
:1004300020B5FFF7BBFEBDE820404FF000064FF0AF
:1004400000074FF000084FF0000B21F00701AC4609
:10045000ACE8C009ACE8C009ACE8C009ACE8C00928
:100460008D46704710B50446AFF300802046BDE8C6
:100470001040FFF787BE00000048704700010020D1
:1004800001491820ABBEFEE72600020070470109B3
:10049000A1EB810100EB4100C0B27047FEE770475D
:1004A00010B590F821100022022905D004218163A3
:1004B00080F82020012010BD01680B6823F00E0396
:1004C0000B6001680B6823F001030B6090F840306B
:1004D000C46B012101FA03F3636080F8211080F8F6
:1004E0002020104610BD000010B590F82110002407
:1004F000022903D00421816301243DE001680A68D8
:1005000022F00E020A6001680A6822F001020A6005
:100510001A4A0168914201D1012121E0174A14329F
:10052000914201D110211BE0144A2832914201D19D
:10053000891515E0114A3C32914201D189140FE02E
:100540000E4A5032914202D14FF4803108E00B4AFA
:100550006432914202D14FF4801101E04FF080717A
:10056000064A083A5160012180F82110002180F8E4
:100570002010416B01B18847204610BD08000240A1
:1005800070B5044600F0FEF80546601C02D0044831
:100590000078044400F0F6F8401BA042FAD370BD86
:1005A000080000202DE9F84FDFF8B891002409F188
:1005B000040A0AF1040B23460F270BF1040EC9E0CD
:1005C0000125A5402A40AA427DD1674ED1F804C03A
:1005D000ACEB0608B44532D014DCBCF1030F3AD0C2
:1005E00009DCBCF1000F2AD0BCF1010F1CD0BCF11A
:1005F000020F31D11DE0BCF1110F17D0BCF1120F69
:100600002AD119E0B8F5881F19D006DCB8F5803F6B
:1006100015D0B8F5801F1FD111E0B8F5001F0ED01E
:10062000B8F5041F18D10AE0CB6815E0CB681B1D94
:1006300012E0CB6808330FE0CB680C330CE08B681A
:100640002BB1012B4FF0080303D0456104E00423D4
:1006500002E0056100E00023FF2A01D8064601E020
:1006600000F104064FEA840501D9A5F12005D6F86A
:10067000008007FA05FC28EA0C0803FA05F548EAA9
:100680000508C6F800804D68ED0062D5374DAE69AB
:1006900046F00106AE61AD6924F0030605F00105E0
:1006A0000095334D06EB050CDCF80850A607360F15
:1006B00007FA06F825EA0805DFF8B880404503D1B7
:1006C0004FF0000817E044E0DFF8AC80404502D16D
:1006D0004FF001080FE0DFF8A480404502D14FF051
:1006E000020808E0DFF89880404502D14FF0030887
:1006F00001E04FF0040808FA06F848EA0508CCF8CB
:1007000008804D68D9F80060ED034D4601D51643C9
:1007100000E096432E604D68DAF80060AD03554660
:1007200001D5164300E096432E604D68DBF800606B
:10073000ED025D4601D5164300E096432E604D68FC
:10074000DEF80060AD02754601D5164300E0964321
:100750002E60641C0D682A46E5407FF431AFBDE889
:10076000F88F00000004014000001110001002404A
:100770000000014000080140000C01400010014051
:100780000014014001488068704700000800002004
:1007900070B5040025D094F83D00002520B984F8F8
:1007A0003C50204600F078FA242084F83D00206870
:1007B000016821F0010101602068016841F40041F5
:1007C00001602068016821F40041016000F0C0FB75
:1007D0004D4A6168914201D84C4900E04C49884239
:1007E00001D2012070BD4B492368B0FBF1F15E6876
:1007F00026F03F060E435E606368934206D94FF4CD
:10080000967359434FF47A73B1FBF3F12368491C93
:100810001E6A26F03F06314319626168914210D882
:100820004900401EB0FBF1F2521CC2F30B02042A35
:1008300001D2042022E0B0FBF1F0401CC0F30B0019
:100840001CE0A268F2B301EBC10303EB0116431EE7
:10085000B3FBF6F35B1C43F480431B0549D092B312
:1008600001EBC10202EB0111401EB0FBF1F0401C94
:10087000C0F30B0040F4804040F400402168CA6996
:100880004CF6FF739A431043C861D4E90710014343
:100890002068026822F0C00211430160D4E903011C
:1008A00001432068826848F2FF339A431143816014
:1008B000D4E9050108432168CA6822F0FF02104309
:1008C000C86001E00EE016E02068016841F0010117
:1008D00001602564202084F83D00256384F83E50A3
:1008E000002070BD01EB4106431EB3FBF6F35B1C19
:1008F000B3E70120C2E701EB4101401EB0FBF1F07C
:10090000401CC0F30B00B7E7A086010080841E00E6
:1009100000093D0040420F002DE9FF4F83B0002544
:10092000DDE910799A4693460446DDF84880009543
:10093000FFF728FF064694F83D0020287CD11923B4
:10094000012285492046009600F0E2FF0028F5D1FB
:1009500094F83C0001286FD0012084F83C00206806
:100960000168C90703D1016841F0010101602068F5
:10097000016821F400610160222084F83D004020DC
:1009800084F83E0025646762A4F82A90608D208573
:100990007248E062CDE9008653465A4620460499E3
:1009A00000F0BEFE00287DD1208DDFF8B491202715
:1009B00068B1012814D00228206801681ED041F4D3
:1009C000806101602068416980690090B6E020681C
:1009D000416981690091016841F400710160ADE0F5
:1009E0002068016821F48061016072B62068416965
:1009F00081690091016841F400710AE041F40061ED
:100A0000016072B62068416981690091016821F432
:100A10008061016062B691E0032868D801280CD09B
:100A2000022843464FF000024946204600960FD068
:100A300000F06EFFB0BB10E08BE03246414620462E
:100A400000F0E5FF70BB20680069616A08706CE027
:100A500000F05EFF30BB72B634E02068016821F41C
:100A60008061016072B620680069616A0870606A1E
:100A7000401C6062208D401E2085608D401E608578
:100A8000384846F2A8110068B0FBF1F0C0EBC00096
:100A900000EB80000090401E009008D02068406964
:100AA000C04300E029E040070CD50098F3E744F884
:100AB000305F6773A573206940F02000206162B643
:100AC00025731AE02068016841F400710160206814
:100AD0000069616A0870606A401C6062218D491E6D
:100AE0002185618D491E618562B621681BE0324611
:100AF0004146204600F08BFF18B1012007B0BDE849
:100B0000F08F20680069616A0870606A401C60624A
:100B1000218D491E2185618D491E618521684A69A3
:100B2000D24352070AD409690170606A401C6062AE
:100B3000208D401E2085608D401E6085208D002800
:100B40007FF46AAF84F83D7084F83E5084F83C50DE
:100B5000D4E70220D2E70000020010000000FFFFEF
:100B600004000100140000202DE9FF4F83B09A46D5
:100B7000DDE9119793460446DDF84080FFF702FE59
:100B8000054694F83D0020287FD1192301224049D1
:100B90002046009500F0BCFE002876D194F83C0079
:100BA000012872D0012084F83C0020680168C90740
:100BB00003D1016841F0010101602068016821F45E
:100BC00000610160212084F83D00402084F83E004F
:100BD00000262664C4F82480A4F82A90608D20851D
:100BE0002C48E062CDE9007553465A4620460499E8
:100BF00000F014FE70B930E02A463946204600F075
:100C000039FF58B1206C042804D12068016841F4F0
:100C100000710160012007B0BDE8F08F606A2168B3
:100C200000780861606A401C6062218D491E89B2AB
:100C30002185628D521E628522685369DB435B0702
:100C40000BD469B100781061606A401C6062208D2D
:100C5000401E2085608D401E6085208D0028CBD1F0
:100C60002A463946204600F02DFE0028CAD154F805
:100C70003D0B016841F400710160202004F81E0959
:100C8000E67766770020C6E7FFE70220C3E70000AB
:100C9000020010000000FFFF10B586B00021009197
:100CA00001910291039100680F4988421AD10F4CBB
:100CB000A06940F00800A061A069694600F0080042
:100CC0000490C02000901220019003200390084857
:100CD000FFF768FCE06940F40010E061E06900F4AF
:100CE0000010049006B010BD0054004000100240F7
:100CF000000C01400248816802781144816070470D
:100D000008000020074810B5016841F0100101609B
:100D1000032000F075F80F2000F006F800F024F82A
:100D2000002010BD0020024070B50D4D04464FF468
:100D30007A712878B1FBF0F00A490968B1FBF0F04C
:100D400000F0ECFA48B9102C07D200222146501EC0
:100D500000F036F800206C6070BD012070BD00000E
:100D600008000020140000200C4808B5816941F0FB
:100D700001018161816901F001010091C16941F0C6
:100D80008051C161C06900F0805000900448416802
:100D900021F0E06141F00071416008BD00100240A7
:100DA00000000140002809DB00F01F0201219140F2
:100DB0004009800000F1E020C0F8001170470000F9
:100DC000F0B40E4B1B680C46C3F30223C3F10705B6
:100DD000042D00D90425191D072901D2002300E0A4
:100DE000DB1E012606FA05F1491E214099409E406E
:100DF000761E16403143F0BC00F0A1BF0CED00E0C0
:100E0000064900F0070208684FF6FF03184040EA61
:100E10000220034A10430860704700000CED00E018
:100E20000000FA052DE9F0470F46050061D0434E5A
:100E3000306800F00700B84209D2306820F007009F
:100E400038433060306800F00700B84251D128685C
:100E50003B4C810712D5400703D5606840F4E06041
:100E600060602878000703D5606840F460506060D7
:100E70006068A96820F0F000084360602878C00727
:100E800028D06868012810D02168022810D089076E
:100E900000292EDA616821F0030101436160FFF748
:100EA00071FC804641F288390DE021688903EFE743
:100EB0008901EDE7FFF766FCA0EB0801494502D97F
:100EC0000320BDE8F0876068696800F00C00B0EBB3
:100ED000810FEFD1306800F00700B8420BD93068BD
:100EE00020F0070038433060306800F00700B84257
:100EF00001D00120E5E72878400705D56068E9685A
:100F000020F4E060084360602878000706D5606838
:100F1000296920F4605040EAC100606000F038F8B0
:100F20006168084AC1F30311515CC8400649086072
:100F300006480068FFF7F8FE0020C2E700200240E4
:100F400000100240F81F0008140000200C000020D0
:100F50000448054900684968044AC1F30221515C0C
:100F6000C84070471400002000100240082000080C
:100F70000448054900684968044AC1F3C221515C2C
:100F8000C8407047140000200010024008200008EC
:100F900012A185B00FC98DE80F0014A0144A006893
:100FA00004905168134801F00C03042B10D0082B57
:100FB0000ED1C1F38343C9031DF803000AD551685C
:100FC00004AAC1F34041515C0A4A5043B0FBF1F01E
:100FD00005B0704708494843FAE7000002030405DA
:100FE000060708090A0B0C0D0E0F10100102000075
:100FF0000010024000127A0000093D002DE9F84F70
:10100000040070D02078C04DC00749D06868C0F394
:101010008100012807D06868C0F38100022809D147
:101020006868C00306D52868800339D56068002841
:10103000E7D035E06068B0F5803F0BD010B1B0F577
:10104000A02F11D0286820F480302860286820F470
:10105000802002E0286840F480302860606890B109
:10106000FFF790FB06460AE0286840F480202860DD
:10107000F0E700BFFFF786FB801B642873D8286861
:101080008003F7D50CE0FFF77DFB064605E000BFC7
:10109000FFF778FB801B6428F0D828688003F7D41A
:1010A00020789A4E80074FF001094FF0000839D59B
:1010B000686810F00C0F07D06868C0F38100022840
:1010C00009D16868C00306D42868800714D5206950
:1010D000012808D110E02069B0B1C6F80090FFF7F0
:1010E00051FB074605E00AE1FFF74CFBC01B022855
:1010F000C4D828688007F7D52868616920F0F8000F
:1011000040EAC10028600DE0C6F80080FFF73AFB16
:10111000074604E0FFF736FBC01B022823D82868E7
:101120008007F7D4207800072CD57948A169D9B178
:10113000C0F80090FFF726FB074604E0FFF722FB0C
:10114000C01B02280FD8686A8007F7D571484FF492
:10115000FA510068B0FBF1F0009000BF0098411E0A
:101160000091FAD20EE080E0C0F80080FFF70AFBA1
:10117000074604E0FFF706FBC01B022875D8686A23
:101180008007F7D42078400760D5E8690027C000C1
:1011900008D4E86940F08050E861E869012700F070
:1011A000805000905C480168C90513D401688346EB
:1011B00041F480710160FFF7E5FA824606E000BF66
:1011C000FFF7E0FAA0EB0A0064284ED8DBF8000035
:1011D000C005F5D5E06801280AD008B1052813D06C
:1011E000286A20F001002862286A20F0040002E04A
:1011F000286A40F001002862E06841F2883B98B11B
:10120000FFF7C0FA82460BE0286A40F0040028622B
:10121000EEE700BFFFF7B6FAA0EB0A0159455AD82E
:10122000286A8007F6D50CE0FFF7ACFA824605E0A5
:10123000FFF7A8FAA0EB0A0159454CD8286A8007A5
:10124000F6D41FB1E86920F08050E861E06988B306
:101250006968C1F38101022944D00228C6F8608080
:1012600004D0FFF78FFA044638E034E0FFF78AFA3B
:10127000074604E0FFF786FAC01B02282BD828682F
:101280008001F7D4206AB0F5803F05D16868A16875
:1012900020F4003008436860D4E908010843696815
:1012A00021F4741108436860C6F86090FFF76AFA89
:1012B000044606E025E000BFFFF764FA001B0228A1
:1012C00009D828688001F7D51BE000BFFFF75AFA5C
:1012D000001B022802D90320BDE8F88F286880018E
:1012E000F4D40EE00128F7D06868226A00F4803157
:1012F000914204D1616A00F47010884201D001204B
:10130000EAE70020E8E70000001002400000424247
:1013100080044242140000200070004010B5401EBE
:10132000B0F1807F01D3012010BD4FF0E024606157
:101330000F21601700F003FD0020A061072020614D
:10134000002010BD70477047F8B502680446106869
:10135000D168536910F00F0F4FF0000553D003F020
:10136000010601F4907737435FD0C20705D0CA0564
:1013700003D5226C42F001022264420705D5DA0748
:1013800003D0226C42F002022264820705D5DA07FC
:1013900003D0226C42F004022264020707D501F058
:1013A0002002324303D0226C42F008022264226CF5
:1013B000002A34D0800604D5880602D5204600F0E5
:1013C000CEFB20684069216CC0F38010090700D46F
:1013D00030B3204600F0ABFB2068416949061BD5BD
:1013E000416921F040014161A06BA8B158494163B6
:1013F000A06BFFF779F8002811D0A06B416B01B00A
:10140000BDE8F040084783060FD58B060DD5204672
:10141000BDE8F84000F0A3BB2046FFF794FFF8BDFD
:101420002046FFF790FF2564F8BD266B2023012E90
:1014300052D1C60650D5CE064ED5106850680090E1
:10144000506940062AD5A16B086840680004000C6A
:10145000EAD0A68D8642E7D9E0858869202818D091
:10146000D06820F48070D0602068416921F00101CB
:1014700041612068416921F04001416184F83E30BA
:1014800025632068C16821F01001C160A06BFFF7DF
:1014900007F8A08DE18D401A81B219E0A08DE18D91
:1014A000401A81B2E08D0028BED00029BCD0D0689F
:1014B00020F49070D0602068426922F001024261FD
:1014C00084F83E3025632068C26822F01002C260B2
:1014D0002046FFF737FFF8BD05062BD50D0629D5A9
:1014E00094F83D002128F6D1A068B0F5805F01D1C5
:1014F0002069B0B1206A411C2162216800784860EF
:10150000E08C401E0004000CE084E4D12068C16837
:1015100021F08001C1602068C16841F04001C160D4
:10152000F8BD206A0088C0F308005060206A801C63
:101530002062E5E74006F3D54806F1D5D16820469C
:1015400021F04001D16084F83D3000F0D0F8F8BDC2
:101550001F1B000870B5040004D094F83D0000255E
:1015600010B106E0012070BD84F83C50204600F028
:1015700023F8242084F83D002068C16821F400513C
:10158000C160204600F046FB2068016921F49041CB
:1015900001612068416921F02A0141612068C16828
:1015A00041F40051C1602564202084F83D0084F896
:1015B0003E00002070BD000030B585B000240094CE
:1015C0000194029403940068184988422CD1184869
:1015D000816941F480418161816901F48041049114
:1015E000816941F0040181618069124D00F00400BD
:1015F00004904FF4007000900220019003200390AB
:1016000069462846FEF7CEFF2815CDE90004694655
:1016100028460294FEF7C6FF002211462520FFF758
:10162000CFFB2520FFF7BEFB05B030BD00380140E1
:101630000010024000080140704700002DE9F84307
:10164000044690F83D001F4616460D4620284CD112
:10165000C5B1BEB194F83C00012846D0012084F801
:101660003C004FF00008C4F84080212084F83D0081
:10167000FFF788F8A6848146E684A068B0F5805F0D
:1016800003D004E00120BDE8F883206928B12E468C
:101690005FF0000584F83C800EE00026FAE7802128
:1016A000204600F013FBA0B9AEB116F8010B21687B
:1016B0004860E08C401EE084E08C4B464FF0000216
:1016C00000970028EBD14FF04001204600F0FEFAD1
:1016D00030B10320D7E735F8020BC0F30800E6E786
:1016E000202084F83D000020CDE70220CBE77047A2
:1016F000FEE701684A69D24352050FD46FF4806255
:101700004A61002140F8301F202242738173026930
:1017100042F004020261017301207047002070470B
:101720002DE9F84F0446006889460B9D01689846EC
:10173000174641F4806101602068016841F48071BE
:10174000016000954FF0011B0022594620460A9B7C
:1017500000F0DEF84FF4007A40B120680068C00560
:1017600001D5C4F840A00320BDE8F88F216809F036
:10177000FE0008612B46284920460A9A00F0FCF832
:10178000F0BB20684169806900902A4620460A998A
:1017900000F070F940B1206C04283AD1206801684B
:1017A00041F40071016034E0FEB2B8F1010F09D0DC
:1017B0002168380A08612A4620460A9900F05AF939
:1017C0000028E8D1206806612A4620460A9900F0E0
:1017D00051F90028DFD12068016841F4807101606F
:1017E00000950022594620460A9B00F091F80028F7
:1017F000B3D1216809F0FF0040F00100086100E06A
:1018000007E02B46044920460A9A00F0B5F8002864
:10181000AAD00120A8E70000020001002DE9F8434A
:10182000044600680D46DDE90897016898461646AB
:1018300041F4807101604B4600224FF001112046B7
:10184000009700F065F848B120680068C00502D52F
:101850004FF4007020640320BDE8F883216805F090
:10186000FE0008613B464A461549204600F084F8D0
:1018700088B920684169806900903A464946204607
:1018800000F0F8F848B1206C042804D12068016801
:1018900041F4007101600120DEE7F5B2B8F1010FFB
:1018A00009D02168300A08613A464946204600F0CE
:1018B000E1F80028E7D1206805610020CCE70000AE
:1018C0000200010070B516460D4604460DE02046A4
:1018D000FFF70FFF08B1012070BD681C05D0FEF7AF
:1018E00051FF801BA84207D835B120684069C0432A
:1018F0004007ECD4002070BD002044F8300F2021B8
:101900006173A073216941F0200121612073E2E736
:101910002DE9F0471E4690460D460446C1F30747A1
:10192000DDF8209008E0701C06D0FEF72BFFA0EB3E
:101930000900B0420FD876B12068012F18D0806915
:1019400025EA00000004000C14D000214145EAD033
:101950000020BDE8F087002044F8300F202161739B
:10196000A073216941F02001216120730120F0E77B
:101970004069E5E70121E9E72DE9F0479A469146FC
:101980000E46044600254FF02008C1F3074725E026
:1019900020684069C043400514D42068016841F4C0
:1019A0000071016021686FF480604861256384F8EC
:1019B0003D8084F83E50206C40F00400206484F8A0
:1019C0003C501FE0B9F1FF3F08D0FEF7DBFEA0EB73
:1019D0000A0149450CD8B9F1000F09D02068012F40
:1019E00013D0806926EA00000004000C0BD0CFE77A
:1019F00044F8305F84F80D80A573206940F0200022
:101A0000206125730120BDE8F0874069EAE72DE9F0
:101A1000F041002590460E460446202717E0406915
:101A2000C043C0060CD454F8301B6FF0100048615E
:101A300044F810596777A577206A2062257717E068
:101A4000FEF7A0FEA0EB0800B04208D83EB1206827
:101A50004169C9434906E2D40020BDE8F08144F859
:101A6000305F6773A573206940F020002061257303
:101A70000120F2E770B516460D4604460DE02046FB
:101A8000FFF737FE08B1012070BD681C05D0FEF7D6
:101A900079FE801BA84207D835B120684069C04351
:101AA0000006ECD4002070BD002044F8300F202147
:101AB0006173A073216941F0200121612073E2E785
:101AC000FEE7FEE770477047FFF714B910B590B016
:101AD00028216846FEF700FC14210AA8FEF7FCFB4B
:101AE000022000900120049010200024059007940B
:101AF0006846FFF783FA08B172B6FEE70F20CDE91A
:101B00000A040C940D9400210AA80E94FFF78AF998
:101B1000002801D072B6FEE710B010BD704710B5B6
:101B2000406A0021C185C184FFF70DFC10BD01682A
:101B3000CA6822F49072CA6001684A6922F0010200
:101B40004A61016B012904D10168CA6822F01002C0
:101B5000CA60202180F83E1000210163704708B55B
:101B600090F83E10222901D0022008BD82684FF46F
:101B700080539A4201D1016921B1816A9A421BD0F6
:101B80004AB10AE00268816A5268C2F308020A8018
:101B9000816A891C08E0026972B10268526802F029
:101BA0007F020A70816A491C8162C18D491E090445
:101BB000090CC18503D019E002685268F1E7016899
:101BC000CA6822F02002CA600168CA6822F48072E2
:101BD000CA6001684A6922F001024A61202180F846
:101BE0003E10016B012903D0FFF726FD002008BD40
:101BF000002101630168CA6822F01002CA6001680E
:101C00000A68D20602D50A6849680091818DFFF7FB
:101C100099FBEBE770B5044600680169E26821F4BE
:101C20004051114301612169A0680843616908437B
:101C30002168CA6841F20C639A430243CA60206873
:101C40004169A26921F44071114341611E49206834
:101C5000884202D1FFF78CF901E0FFF779F900EB38
:101C6000C00101EB0012606864218000B2FBF0F358
:101C7000B3FBF1F36FF018067343B2FBF0F5B2FB60
:101C8000F0F605EB8305322303EB0515B5FBF1F503
:101C9000B6FBF1F605F0F00505EB0615B2FBF0F624
:101CA000B2FBF0F0B0FBF1F06FF01802504306EB1E
:101CB000800003EB0010B0FBF1F0216800F00F0092
:101CC0002844886070BD0000003801402DE9F041D3
:101CD000984617460E460446069D1DE0681C1BD01C
:101CE0002DB1FEF74FFDA0EB0800A84214D92068E3
:101CF000C16821F4D071C1602068416921F00101FF
:101D00004161202084F83D0084F83E00002084F8E2
:101D10003C000320BDE8F0812068006836EA00003E
:101D200004D00020B842D9D00020F3E70120F9E721
:101D30000148FFF709BB00006C000020FEE709071F
:101D4000090E002804DB00F1E02080F80014704741
:101D500000F00F0000F1E02080F8141D7047000033
:101D60008AB0FEF7CFFFFFF7B1FE9348816941F0DB
:101D700004018161816901F004010091816941F0F0
:101D80000801816180698D4900F0080000908C484D
:101D9000002401608B49C0E901144FF48041C0E97F
:101DA000034144618461C4610462FEF7F1FC08B13F
:101DB00072B6FEE782488449543001604FF41651F0
:101DC000C0E901140C21C460C0E904418461C4610C
:101DD000FFF7C0FB08B172B6FEE70125DFF8ECB1F2
:101DE0003224CDF800B0CDE901544FF4D0762B4623
:101DF000002231467248FEF7B7FE0BF10100CDE933
:101E0000000501231A46314602946D48FEF7ACFEE8
:101E10000BF10209CDF80090CDE901540123022213
:101E200031466748FEF7A0FE09F10108CDF80080B1
:101E3000CDE901540123042231466148FEF794FEA6
:101E400008F1010ACDF800A0CDE9015401230522D3
:101E500031465B48FEF788FE08F102070097CDE99E
:101E600001540123062231465548FEF77DFE0A271C
:101E700001255648CDE9000532244FF4D0762B4693
:101E80000022314602944E48FEF746FD4F4801239A
:101E9000401CCDE900051A46314602944848FEF739
:101EA0003BFD4A480123801CCDE900050222314652
:101EB00002944348FEF730FD44480123C01CCDE99D
:101EC00000050422314602943D48FEF725FD3F48B7
:101ED0000123001DCDE90005052231460294384852
:101EE000FEF71AFD39480123401DCDE90005062201
:101EF000314602943248FEF70FFD344A5079FEF71E
:101F0000C6FA01901079FEF7C2FAB0FBF7F107FBB1
:101F100011081079FEF7BBFAB0FBF7F6D078FEF7A0
:101F2000B6FAB0FBF7F107FB110AD078FEF7AFFA6B
:101F3000B0FBF7F000901078FEF7A9FAB0FBF7F1CC
:101F400007FB110B1078FEF7A2FAB0FBF7F95078F7
:101F5000FEF79DFAB0FBF7F107FB11055078FEF78D
:101F600096FAB0FBF7F49078FEF791FAB0FBF7F130
:101F700007FB11039078FEF78AFAB0FBF7F201989D
:101F800013A1CDE90780CDE905A60098CDE903B0FE
:101F90000B488DE830029830FEF71AF908493223D1
:101FA00098315022A1F14400FFF748FB4FF4FA703A
:101FB000FEF7E6FA5CE70000001002400054004023
:101FC00018000020A0860100003801400000002019
:101FD00074696D653A20256425643A256425643A60
:101FE000256425642020256425643A256425643A07
:101FF00032302564000000000000000000000000F6
:10200000010203040607080900000000010203049E
:1020100030200008000000201800000028010008FF
:10202000482000081800002048070000440100086C
:102030005059232010200000010000001000000073
:08204000000000000024F40080
:04000005080000ED02
:00000001FF
