:020000040800F2
:10000000980600208901000891010008930100086A
:100010009501000897010008990100080000000000
:100020000000000000000000000000009B0100082C
:100030009D010008000000009F01000895060008CF
:10004000A3010008A3010008A3010008A301000800
:10005000A3010008A3010008A3010008A3010008F0
:10006000A3010008A3010008A3010008A3010008E0
:10007000A3010008A3010008A3010008A3010008D0
:10008000A3010008A3010008A3010008A3010008C0
:10009000A3010008A3010008A3010008A3010008B0
:1000A000A3010008A3010008A3010008A3010008A0
:1000B000A3010008A3010008A3010008A301000890
:1000C000A3010008A3010008A3010008A301000880
:1000D000A3010008A3010008A3010008A301000870
:1000E000A3010008A3010008A301000800F002F822
:1000F00000F03AF80AA090E8000C82448344AAF188
:100100000107DA4501D100F02FF8AFF2090EBAE885
:100110000F0013F0010F18BFFB1A43F0010318473B
:100120002408000044080000103A24BF78C878C1B1
:10013000FAD8520724BF30C830C144BF04680C60ED
:10014000704700000023002400250026103A28BF35
:1001500078C1FBD8520728BF30C148BF0B60704739
:100160001FB51FBD10B510BD00F031F81146FFF7E7
:10017000F7FF00F01DFB00F04FF803B4FFF7F2FFAC
:1001800003BC00F057F800000948804709480047C1
:10019000FEE7FEE7FEE7FEE7FEE7FEE7FEE7FEE737
:1001A000FEE7FEE704480549054A064B7047000094
:1001B00051070008ED000008980000209806002074
:1001C00098020020980200207047704770477546DB
:1001D00000F02CF8AE4605006946534620F00700B3
:1001E000854618B020B5FFF7DDFFBDE820404FF091
:1001F00000064FF000074FF000084FF0000B21F011
:100200000701AC46ACE8C009ACE8C009ACE8C009DD
:10021000ACE8C0098D46704710B50446AFF30080C6
:100220002046BDE81040FFF7A8BF00000048704717
:100230003800002001491820ABBEFEE7260002006E
:100240007047000070B500F031FA13480068134A97
:10025000B0FBF2F1481EB0F1807F00D31BE0481ED6
:100260004FF0E022506150170F22002804DB1307E3
:100270001C0E0B4B1C5406E013071D0E094B00F01F
:100280000F04241F1D5500BF00204FF0E022906195
:100290000720106100BF70BD2400002040420F0005
:1002A00000E400E018ED00E000B5024603E04FF482
:1002B0007A7000F005F8101EA2F10102F7D100BD1E
:1002C0000349086000BF024909680029FBD1704753
:1002D000000000202DE9F041024600250026002004
:1002E00000230024002791F803C00CF00F0591F8BB
:1002F00003C00CF0100CBCF1000F03D091F802C049
:100300004CEA050591F800C0BCF1000F31D014682B
:1003100000202BE04FF0010C0CFA00F3B1F800C004
:100320000CEA03069E4220D183004FF00F0C0CFA1A
:1003300003F7BC4305FA03FC4CEA040491F803C03C
:10034000BCF1280F06D14FF0010C0CFA00FCC2F8EA
:1003500014C00AE091F803C0BCF1480F05D14FF07A
:10036000010C0CFA00FCC2F810C0401C0828D1D3C4
:100370001460B1F800C0BCF1FF0F34DD54680020F8
:100380002EE000F1080C4FF0010808FA0CF3B1F868
:1003900000C00CEA03069E4221D183004FF00F0CEF
:1003A0000CFA03F7BC4305FA03FC4CEA040491F889
:1003B00003C0BCF1280F05D100F1080C08FA0CF8B5
:1003C000C2F8148091F803C0BCF1480F07D100F1C6
:1003D000080C4FF0010808FA0CF8C2F81080401C15
:1003E0000828CED35460BDE8F081416170470161B7
:1003F0007047000008B50121182000F069F81020AE
:100400008DF803004FF46040ADF8000003208DF834
:10041000020069462448FFF75DFF48208DF803007D
:100420006020ADF8000069462048FFF753FF102018
:100430008DF803000002ADF8000003208DF80200E3
:1004400069461A48FFF746FF4FF480511748FFF7F7
:10045000CCFF18208DF803004FF40050ADF80000D9
:1004600003208DF8020069461048FFF733FF04208F
:100470008DF803000003ADF8000003208DF80200A2
:1004800069460A48FFF726FF18208DF803004FF44D
:100490000040ADF8000003208DF8020069460348D3
:1004A000FFF718FF08BD000000100140000C0140DC
:1004B00029B1064AD2690243044BDA6104E0034AD7
:1004C000D2698243014BDA6170470000001002409C
:1004D00029B1064A92690243044B9A6104E0034A37
:1004E00092698243014B9A617047000000100240FC
:1004F00021B1028842F04002028004E002884FF6F7
:10050000BF731A40028070470246002013890B40D7
:100510000BB1012000E0002070478181704710B5C9
:100520000022028802F441520B884C8823438C88B5
:100530002343CC8823430C8923434C8923438C8950
:100540002343CC8923431A430280838B4FF2FF74E9
:10055000234083830B8A038210BD10B500F002F89C
:1005600010BD00000CB500200190009033480068D9
:1005700040F480303149086000BF3048006800F422
:10058000003000900198401C0190009818B9019823
:10059000B0F5A06FF1D12948006800F4003010B127
:1005A0000120009001E0002000900098012843D134
:1005B0002348006840F010002149086008460068A0
:1005C00020F0070008600846006840F0020008605C
:1005D0001A4840681949486008464068486008461B
:1005E000406840F4806048600846406820F47C1011
:1005F00048600846406840F4E810486008460068D3
:1006000040F08070086000BF0C48006800F0007087
:100610000028F9D00948406820F0030007494860E5
:100620000846406840F00200486000BF0348406848
:1006300000F00C000828F9D10CBD000000100240A9
:100640000020024000B585B001218803FFF730FF8C
:100650000820ADF80C000020ADF80800ADF8060049
:10066000ADF80400ADF80000ADF80E004FF4827054
:10067000ADF802004FF40070ADF80A006946044876
:10068000FFF74DFF01210248FFF732FF05B000BD23
:10069000003800400448006820B103480068401E4C
:1006A00001490860704700000000002010B50021DB
:1006B00000200022214B5B6803F00C0121B10429CA
:1006C00006D0082928D107E01D4B1E4C236027E0E7
:1006D0001B4B1C4C236023E0184B5B6803F4701029
:1006E000164B5B6803F48032022303EB904022B97F
:1006F000154B4343134C23600DE0104B5B6803F430
:10070000003323B1104B43430E4C236003E00C4BEA
:1007100043430C4C236003E0094B0A4C236000BFA9
:1007200000BF064B5B68C3F30313084CE15C054B49
:100730001B68CB40034C236010BD0000001002403A
:1007400000127A002400002000093D00280000204B
:1007500010B51348006840F00100114908600846D0
:100760004068104908400E494860084600680E4934
:1007700008400B4908600846006820F480200860A3
:100780000846406820F4FE0048604FF41F0088606F
:10079000FFF7E3FE4FF000600449086010BD000061
:1007A000001002400000FFF8FFFFF6FE08ED00E039
:1007B000FFF720FE4FF460415448FFF716FEFFF7A5
:1007C00041FDFFF73FFF092000F0ACF8002000F0EA
:1007D000A9F84FF480514E48FFF709FE4FF48051BD
:1007E0004B48FFF702FE0A2000F09CF8032000F0BF
:1007F00099F84FF480514648FFF7F9FD4FF48051C6
:100800004348FFF7F2FD0B2000F08CF8072000F0C2
:1008100089F84FF480513E48FFF7E9FD4FF48051CD
:100820003B48FFF7E2FD0C2000F07CF8072000F0C9
:1008300079F84FF480513648FFF7D9FD4FF48051D5
:100840003348FFF7D2FD0F2000F06CF8002000F0D5
:1008500069F84FF480512E48FFF7C9FD4FF48051DD
:100860002B48FFF7C2FD002416E02A49085D00F07E
:1008700059F82949085D00F055F84FF48051244893
:10088000FFF7B5FD4FF480512148FFF7AEFD4FF45F
:10089000FA70FFF709FD641C082CE6DB002416E063
:1008A0001C49085D00F03EF81C49085D00F03AF86C
:1008B0004FF480511648FFF79AFD4FF480511448C9
:1008C000FFF793FD4FF4FA70FFF7EEFC641C082C61
:1008D000E6DB002416E00F49085D00F023F810491C
:1008E000085D00F01FF84FF480510948FFF77FFDC5
:1008F0004FF480510648FFF778FD4FF4FA70FFF788
:10090000D3FC641C082CE6DB00BFFEE700100140AE
:10091000000C0140040000200C0000201400002006
:100920001C00002010B5044621460548FFF7F5FDE0
:1009300000BF80210248FFF7E7FD0128F9D010BD74
:100940000038004064090008000000203800000062
:10095000280100089C0900083800002060060000FB
:100960004401000800000000010203040506070816
:100970003C1818181818183C0066FFFFFF7E3C183A
:10098000C3C3C3C3C3C37E3C00A24A04000000002B
:0C09900000000000010203040607080933
:040000050800018965
:00000001FF
