:020000040800F2
:100000008006002089010008910100089301000882
:100010009501000897010008990100080000000000
:100020000000000000000000000000009B0100082C
:100030009D010008000000009F0100084D07000816
:10004000A3010008A3010008A3010008A301000800
:10005000A3010008A3010008A3010008A3010008F0
:10006000A3010008A3010008A3010008A3010008E0
:10007000A3010008A3010008A3010008A3010008D0
:10008000A3010008A3010008A3010008A3010008C0
:10009000A3010008A3010008A3010008A3010008B0
:1000A000A3010008A3010008A3010008A3010008A0
:1000B00069080008A3010008A3010008A3010008C3
:1000C000A3010008A3010008A3010008A301000880
:1000D000A3010008A3010008A3010008A301000870
:1000E000A3010008A3010008A301000800F002F822
:1000F00000F03AF80AA090E8000C82448344AAF188
:100100000107DA4501D100F02FF8AFF2090EBAE885
:100110000F0013F0010F18BFFB1A43F0010318473B
:100120005C0B00007C0B0000103A24BF78C878C13B
:10013000FAD8520724BF30C830C144BF04680C60ED
:10014000704700000023002400250026103A28BF35
:1001500078C1FBD8520728BF30C148BF0B60704739
:100160001FB51FBD10B510BD00F031F81146FFF7E7
:10017000F7FF00F06FFD00F04FF803B4FFF7F2FF58
:1001800003BC00F057F800000948804709480047C1
:10019000FEE7FEE7FEE7FEE7FEE7FEE7FEE7FEE737
:1001A000FEE7FEE704480549054A064B7047000094
:1001B00009080008ED0000088000002080060020EB
:1001C000800200208002002070477047704775460B
:1001D00000F02CF8AE4605006946534620F00700B3
:1001E000854618B020B5FFF7DDFFBDE820404FF091
:1001F00000064FF000074FF000084FF0000B21F011
:100200000701AC46ACE8C009ACE8C009ACE8C009DD
:10021000ACE8C0098D46704710B50446AFF30080C6
:100220002046BDE81040FFF7A8BF00000048704717
:100230001C00002001491820ABBEFEE7260002008A
:100240007047000070B500F08DFA13480068134A3B
:10025000B0FBF2F1481EB0F1807F00D31BE0481ED6
:100260004FF0E022506150170F22002804DB1307E3
:100270001C0E0B4B1C5406E013071D0E094B00F01F
:100280000F04241F1D5500BF00204FF0E022906195
:100290000720106100BF70BD0800002040420F0021
:1002A00000E400E018ED00E02DE9F04102460025F1
:1002B0000026002000230024002791F803C00CF042
:1002C0000F0591F803C00CF0100CBCF1000F03D027
:1002D00091F802C04CEA050591F800C0BCF1000F8E
:1002E00031D0146800202BE04FF0010C0CFA00F321
:1002F000B1F800C00CEA03069E4220D183004FF003
:100300000F0C0CFA03F7BC4305FA03FC4CEA040497
:1003100091F803C0BCF1280F06D14FF0010C0CFA84
:1003200000FCC2F814C00AE091F803C0BCF1480F09
:1003300005D14FF0010C0CFA00FCC2F810C0401CB3
:100340000828D1D31460B1F800C0BCF1FF0F34DD30
:10035000546800202EE000F1080C4FF0010808FA64
:100360000CF3B1F800C00CEA03069E4221D18300D1
:100370004FF00F0C0CFA03F7BC4305FA03FC4CEAF0
:10038000040491F803C0BCF1280F05D100F1080C5A
:1003900008FA0CF8C2F8148091F803C0BCF1480FB9
:1003A00007D100F1080C4FF0010808FA0CF8C2F868
:1003B0001080401C0828CED35460BDE8F081416114
:1003C000704701617047000000B587B00121182017
:1003D00000F00EF914208DF81B004FF4C040ADF86A
:1003E000180003208DF81A0006A92E48FFF75CFFBD
:1003F00010208DF81B000002ADF8180003208DF8C6
:100400001A0006A92848FFF74FFF18208DF81B0097
:100410004FF40050ADF8180003208DF81A0006A91B
:100420002148FFF741FF04208DF81B000003ADF8C1
:10043000180003208DF81A0006A91B48FFF734FFA7
:1004400004208DF81B004003ADF8180003208DF840
:100450001A0006A91448FFF727FF0121880300F0BE
:10046000B7F82020ADF810000020ADF80C00ADF872
:100470000A00ADF80800ADF80400ADF812004FF422
:100480008270ADF806004FF40070ADF80E0001A9BF
:10049000064800F0C9F80121044800F0B9F807B097
:1004A00000BD000000100140000C01400038004079
:1004B00070B5002100230F22C47804B3154C2468C2
:1004C00004F4E064C4F5E064210AC1F10403CA4005
:1004D000447804FA03F184781440214309010E4C56
:1004E0000678A155047804F01F050124AC40057876
:1004F0006D11AD0005F1E025C5F8004109E0047873
:1005000004F01F050124AC40044D0678761145F82F
:10051000264070BD0CED00E000E400E080E100E06A
:100520001FB56020ADF800000020ADF808000A20DB
:10053000ADF806000120ADF802006946800700F022
:100540000BFA6020ADF800000020ADF8080019207B
:10055000ADF806000120ADF802006946800700F002
:1005600047FA6020ADF800000020ADF80800322006
:10057000ADF806000120ADF802006946800700F0E2
:1005800089FA6020ADF800000020ADF80800642072
:10059000ADF806000120ADF802006946800700F0C2
:1005A000C9FA1FBD08B50121042000F021F8182068
:1005B0008DF803000F20ADF8000003208DF8020035
:1005C00069460248FFF770FE08BD000000080140C0
:1005D00029B1064AD2690243044BDA6104E0034AB6
:1005E000D2698243014BDA6170470000001002407B
:1005F00029B1064A92690243044B9A6104E0034A16
:1006000092698243014B9A617047000000100240DA
:1006100021B1028842F04002028004E002884FF6D5
:10062000BF731A400280704710B50022028802F49E
:1006300041520B884C8823438C882343CC88234326
:100640000C8923434C8923438C892343CC8923433E
:100650001A430280838B4FF2FF74234083830B8AFB
:10066000038210BD10B500F001F810BD0CB50020DC
:10067000019000903348006840F4803031490860B0
:1006800000BF3048006800F4003000900198401C22
:100690000190009818B90198B0F5A06FF1D12948E0
:1006A000006800F4003010B10120009001E000204B
:1006B00000900098012843D12348006840F01000C2
:1006C000214908600846006820F0070008600846D5
:1006D000006840F0020008601A4840681949486004
:1006E0000846406848600846406840F480604860BA
:1006F0000846406820F47C1048600846406840F492
:10070000E81048600846006840F08070086000BF4C
:100710000C48006800F000700028F9D009484068D3
:1007200020F00300074948600846406840F0020096
:10073000486000BF0348406800F00C000828F9D169
:100740000CBD000000100240002002400448006878
:1007500020B103480068401E01490860704700004E
:100760000000002010B5002100200022214B5B6812
:1007700003F00C0121B1042906D0082928D107E093
:100780001D4B1E4C236027E01B4B1C4C236023E0B9
:10079000184B5B6803F47010164B5B6803F48032EF
:1007A000022303EB904022B9154B4343134C2360C3
:1007B0000DE0104B5B6803F4003323B1104B43434F
:1007C0000E4C236003E00C4B43430C4C236003E0CE
:1007D000094B0A4C236000BF00BF064B5B68C3F3A4
:1007E0000313084CE15C054B1B68CB40034C2360B2
:1007F00010BD00000010024000127A000800002026
:1008000000093D000C00002010B51348006840F0BE
:1008100001001149086008464068104908400E4927
:100820004860084600680E4908400B4908600846C1
:10083000006820F4802008600846406820F4FE002C
:1008400048604FF41F008860FFF70CFF4FF0006016
:100850000449086010BD0000001002400000FFF8CD
:10086000FFFFF6FE08ED00E010B50121880700F05B
:1008700058F8B0B10B480078012807D141030A4865
:10088000FFF79FFD00200749087006E00120054999
:10089000087041030448FFF792FD0121880700F02A
:1008A00031F810BD04000020001001401FB50121E7
:1008B0000846FFF78DFE1320ADF80400ADF80800E0
:1008C0000020ADF80600ADF80A0001A94FF0804005
:1008D00000F06EF901221146900700F033F8012173
:1008E000880700F012F81C208DF8000000208DF819
:1008F00001008DF8020001208DF803006846FFF723
:10090000D7FD1FBDCA430282704721B1028842F061
:100910000102028004E002884FF6FE731A40028052
:10092000704730B50246002000230024158A05EAEE
:100930000103958905EA010413B10CB1012000E01F
:10094000002030BD1AB183890B43838102E0838983
:100950008B4383817047000070B500240022002380
:10096000058C4FF6FE7635400584028C8388048B17
:100970004FF68F752C40B51E2C400D882C43751EEC
:100980002A400D892A434D882A43144DA8420BD092
:10099000134DA84208D0134DA84205D0124DA842CD
:1009A00002D0124DA84213D14FF6F7752A404D8957
:1009B0002A434FF6FB752A408D882A434FF6FF6580
:1009C0002B404FF6FF552B408D892B43CD892B4370
:1009D00083800483CD888586028470BD002C01400D
:1009E0000034014000400140004401400048014003
:1009F00070B5002400220023058C4FF6EF763540B9
:100A00000584028C8388048B48F6FF752C404FF6D2
:100A1000FF452C400D884FF6FF7606EA05252C434E
:100A20004FF6DF752A400D8906EA05152A434D88E1
:100A300006EA05152A43154DA84202D0144DA842D6
:100A40001DD14FF67F752A404D894FF6FF7606EA95
:100A500005152A434FF6BF752A408D8806EA05150D
:100A60002A434FF6FF352B404FF2FF752B408D89FF
:100A700006EA85052B43CD8906EA85052B4383804D
:100A80000483CD880587028470BD0000002C0140DE
:100A90000034014070B5002400220023058C4FF67D
:100AA000FF6635400584028C8388848B4FF68F75F2
:100AB0002C404FF6FC752C400D882C434FF6FF550B
:100AC0002A400D894FF6FF7606EA05252A434D8810
:100AD00006EA05252A43154DA84202D0144DA84226
:100AE0001DD14FF2FF752A404D894FF6FF7606EA79
:100AF00005252A434FF6FF352A408D8806EA05254D
:100B00002A434EF6FF752B404DF6FF752B408D891D
:100B100006EA05152B43CD8906EA05152B4383808C
:100B20008483CD888587028470BD0000002C01403D
:100B30000034014070B5002200230024058C4EF6DD
:100B4000FF7635400584038C8488828B48F6FF75D8
:100B50002A404FF6FF452A400D884FF6FF7606EAF9
:100B600005252A434DF6FF752B400D8906EA05350C
:100B70002B434D8806EA05352B430B4DA84202D086
:100B80000A4DA84208D14BF6FF752C408D894FF6CF
:100B9000FF7606EA85152C4384808283CD88A0F8F1
:100BA0004050038470BD0000002C0140003401401F
:100BB000002202881D4B98420ED01D4B98420BD04C
:100BC000B0F1804F08D01B4B984205D01A4B984289
:100BD00002D01A4B984204D14FF68F731A404B88BB
:100BE0001A43174B984207D0164B984204D04FF641
:100BF000FF431A40CB881A4302808B8883850B8879
:100C000003850A4B98420BD0094B984208D00E4BF3
:100C1000984205D00D4B984202D00D4B984201D11D
:100C20000B7A03860123838270470000002C014069
:100C3000003401400004004000080040000C004067
:100C400000100040001400400040014000440140FA
:100C500000480140FFF7B8FB4FF4C0410648FFF7DA
:100C6000B0FBFFF7EFFAFFF721FEFFF79BFCFFF762
:100C700057FC00BFFEE70000001001409C0C00087C
:100C8000000000201C00000028010008B80C00082B
:100C90001C00002064060000440100080000000061
:100CA0000000000000A24A04000000000000000054
:080CB000010203040607080914
:040000050800018965
:00000001FF
